{"contracts/IncrementDecrement.sol":{"IncrementDecrement":{"abi":[{"inputs":[],"name":"counter","outputs":[{"internalType":"int256","name":"","type":"int256"}],"stateMutability":"view","type":"function"},{"inputs":[],"name":"decrement","outputs":[],"stateMutability":"nonpayable","type":"function"},{"inputs":[],"name":"increment","outputs":[],"stateMutability":"nonpayable","type":"function"},{"inputs":[],"name":"reset","outputs":[],"stateMutability":"nonpayable","type":"function"}],"evm":{"bytecode":{"linkReferences":{},"object":"608060405234801561001057600080fd5b50610182806100206000396000f3fe608060405234801561001057600080fd5b506004361061004c5760003560e01c80632baeceb71461005157806361bc221a1461005b578063d09de08a14610076578063d826f88f1461007e575b600080fd5b610059610087565b005b61006460005481565b60405190815260200160405180910390f35b61005961009d565b61005960008055565b600080549080610096836100db565b9190505550565b60008054908061009683610114565b7f4e487b7100000000000000000000000000000000000000000000000000000000600052601160045260246000fd5b60007f8000000000000000000000000000000000000000000000000000000000000000820361010c5761010c6100ac565b506000190190565b60007f7fffffffffffffffffffffffffffffffffffffffffffffffffffffffffffffff8203610145576101456100ac565b506001019056fea2646970667358221220207817ab8790482c3aaaf1e769406f5b0170b2d4614e951f70db669167f3edab64736f6c63430008110033","opcodes":"PUSH1 0x80 PUSH1 0x40 MSTORE CALLVALUE DUP1 ISZERO PUSH2 0x10 JUMPI PUSH1 0x0 DUP1 REVERT JUMPDEST POP PUSH2 0x182 DUP1 PUSH2 0x20 PUSH1 0x0 CODECOPY PUSH1 0x0 RETURN INVALID PUSH1 0x80 PUSH1 0x40 MSTORE CALLVALUE DUP1 ISZERO PUSH2 0x10 JUMPI PUSH1 0x0 DUP1 REVERT JUMPDEST POP PUSH1 0x4 CALLDATASIZE LT PUSH2 0x4C JUMPI PUSH1 0x0 CALLDATALOAD PUSH1 0xE0 SHR DUP1 PUSH4 0x2BAECEB7 EQ PUSH2 0x51 JUMPI DUP1 PUSH4 0x61BC221A EQ PUSH2 0x5B JUMPI DUP1 PUSH4 0xD09DE08A EQ PUSH2 0x76 JUMPI DUP1 PUSH4 0xD826F88F EQ PUSH2 0x7E JUMPI JUMPDEST PUSH1 0x0 DUP1 REVERT JUMPDEST PUSH2 0x59 PUSH2 0x87 JUMP JUMPDEST STOP JUMPDEST PUSH2 0x64 PUSH1 0x0 SLOAD DUP2 JUMP JUMPDEST PUSH1 0x40 MLOAD SWAP1 DUP2 MSTORE PUSH1 0x20 ADD PUSH1 0x40 MLOAD DUP1 SWAP2 SUB SWAP1 RETURN JUMPDEST PUSH2 0x59 PUSH2 0x9D JUMP JUMPDEST PUSH2 0x59 PUSH1 0x0 DUP1 SSTORE JUMP JUMPDEST PUSH1 0x0 DUP1 SLOAD SWAP1 DUP1 PUSH2 0x96 DUP4 PUSH2 0xDB JUMP JUMPDEST SWAP2 SWAP1 POP SSTORE POP JUMP JUMPDEST PUSH1 0x0 DUP1 SLOAD SWAP1 DUP1 PUSH2 0x96 DUP4 PUSH2 0x114 JUMP JUMPDEST PUSH32 0x4E487B7100000000000000000000000000000000000000000000000000000000 PUSH1 0x0 MSTORE PUSH1 0x11 PUSH1 0x4 MSTORE PUSH1 0x24 PUSH1 0x0 REVERT JUMPDEST PUSH1 0x0 PUSH32 0x8000000000000000000000000000000000000000000000000000000000000000 DUP3 SUB PUSH2 0x10C JUMPI PUSH2 0x10C PUSH2 0xAC JUMP JUMPDEST POP PUSH1 0x0 NOT ADD SWAP1 JUMP JUMPDEST PUSH1 0x0 PUSH32 0x7FFFFFFFFFFFFFFFFFFFFFFFFFFFFFFFFFFFFFFFFFFFFFFFFFFFFFFFFFFFFFFF DUP3 SUB PUSH2 0x145 JUMPI PUSH2 0x145 PUSH2 0xAC JUMP JUMPDEST POP PUSH1 0x1 ADD SWAP1 JUMP INVALID LOG2 PUSH5 0x6970667358 0x22 SLT KECCAK256 KECCAK256 PUSH25 0x17AB8790482C3AAAF1E769406F5B0170B2D4614E951F70DB66 SWAP2 PUSH8 0xF3EDAB64736F6C63 NUMBER STOP ADDMOD GT STOP CALLER "},"methodIdentifiers":{"counter()":"61bc221a","decrement()":"2baeceb7","increment()":"d09de08a","reset()":"d826f88f"}}}}}