{
  "_format": "hh-sol-artifact-1",
  "contractName": "IncrementDecrement",
  "sourceName": "contracts/IncrementDecrement.sol",
  "abi": [
    {
      "inputs": [],
      "name": "counter",
      "outputs": [
        {
          "internalType": "int256",
          "name": "",
          "type": "int256"
        }
      ],
      "stateMutability": "view",
      "type": "function"
    },
    {
      "inputs": [],
      "name": "decrement",
      "outputs": [],
      "stateMutability": "nonpayable",
      "type": "function"
    },
    {
      "inputs": [],
      "name": "increment",
      "outputs": [],
      "stateMutability": "nonpayable",
      "type": "function"
    },
    {
      "inputs": [],
      "name": "reset",
      "outputs": [],
      "stateMutability": "nonpayable",
      "type": "function"
    }
  ],
  "bytecode": "0x608060405234801561001057600080fd5b506101f7806100206000396000f3fe608060405234801561001057600080fd5b506004361061004c5760003560e01c80632baeceb71461005157806361bc221a1461005b578063d09de08a14610079578063d826f88f14610083575b600080fd5b61005961008d565b005b6100636100a6565b60405161007091906100e7565b60405180910390f35b6100816100ac565b005b61008b6100c5565b005b60008081548092919061009f90610131565b9190505550565b60005481565b6000808154809291906100be90610179565b9190505550565b60008081905550565b6000819050919050565b6100e1816100ce565b82525050565b60006020820190506100fc60008301846100d8565b92915050565b7f4e487b7100000000000000000000000000000000000000000000000000000000600052601160045260246000fd5b600061013c826100ce565b91507f8000000000000000000000000000000000000000000000000000000000000000820361016e5761016d610102565b5b600182039050919050565b6000610184826100ce565b91507f7fffffffffffffffffffffffffffffffffffffffffffffffffffffffffffffff82036101b6576101b5610102565b5b60018201905091905056fea264697066735822122047df1d951ecf8eda9c1316f4507c182240ef5aeff76db1acbe9664b5e0f7b82c64736f6c63430008110033",
  "linkReferences": {},
  "deployedLinkReferences": {}
}