{
  "_format": "hh-sol-artifact-1",
  "contractName": "IncrementDecrement",
  "sourceName": "contracts/IncrementDecrement.sol",
  "abi": [
    {
      "inputs": [],
      "name": "counter",
      "outputs": [
        {
          "internalType": "int256",
          "name": "",
          "type": "int256"
        }
      ],
      "stateMutability": "view",
      "type": "function"
    },
    {
      "inputs": [],
      "name": "decrement",
      "outputs": [],
      "stateMutability": "nonpayable",
      "type": "function"
    },
    {
      "inputs": [],
      "name": "increment",
      "outputs": [],
      "stateMutability": "nonpayable",
      "type": "function"
    },
    {
      "inputs": [],
      "name": "reset",
      "outputs": [],
      "stateMutability": "nonpayable",
      "type": "function"
    }
  ],
  "bytecode": "0x608060405234801561001057600080fd5b50610182806100206000396000f3fe608060405234801561001057600080fd5b506004361061004c5760003560e01c80632baeceb71461005157806361bc221a1461005b578063d09de08a14610076578063d826f88f1461007e575b600080fd5b610059610087565b005b61006460005481565b60405190815260200160405180910390f35b61005961009d565b61005960008055565b600080549080610096836100db565b9190505550565b60008054908061009683610114565b7f4e487b7100000000000000000000000000000000000000000000000000000000600052601160045260246000fd5b60007f8000000000000000000000000000000000000000000000000000000000000000820361010c5761010c6100ac565b506000190190565b60007f7fffffffffffffffffffffffffffffffffffffffffffffffffffffffffffffff8203610145576101456100ac565b506001019056fea2646970667358221220207817ab8790482c3aaaf1e769406f5b0170b2d4614e951f70db669167f3edab64736f6c63430008110033",
  "linkReferences": {},
  "deployedLinkReferences": {}
}