{
  "_format": "hh-sol-artifact-1",
  "contractName": "Whitelist",
  "sourceName": "contracts/Whitelist.sol",
  "abi": [
    {
      "inputs": [],
      "stateMutability": "nonpayable",
      "type": "constructor"
    },
    {
      "anonymous": false,
      "inputs": [
        {
          "indexed": false,
          "internalType": "address",
          "name": "_address",
          "type": "address"
        }
      ],
      "name": "Authorized",
      "type": "event"
    },
    {
      "inputs": [
        {
          "internalType": "address",
          "name": "_address",
          "type": "address"
        }
      ],
      "name": "authorize",
      "outputs": [],
      "stateMutability": "nonpayable",
      "type": "function"
    },
    {
      "inputs": [
        {
          "internalType": "address",
          "name": "",
          "type": "address"
        }
      ],
      "name": "whitelist",
      "outputs": [
        {
          "internalType": "bool",
          "name": "",
          "type": "bool"
        }
      ],
      "stateMutability": "view",
      "type": "function"
    }
  ],
  "bytecode": "0x608060405234801561001057600080fd5b50336000908152602081905260409020805460ff191660011790556101e18061003a6000396000f3fe608060405234801561001057600080fd5b50600436106100365760003560e01c80639b19251a1461003b578063b6a5d7de14610072575b600080fd5b61005e61004936600461016e565b60006020819052908152604090205460ff1681565b604051901515815260200160405180910390f35b61008561008036600461016e565b610087565b005b3360009081526020819052604090205460ff161515600114610109576040517f08c379a000000000000000000000000000000000000000000000000000000000815260206004820152600c60248201527f556e617574686f72697a65640000000000000000000000000000000000000000604482015260640160405180910390fd5b73ffffffffffffffffffffffffffffffffffffffff811660008181526020818152604091829020805460ff1916600117905590519182527fdc84e3a4c83602050e3865df792a4e6800211a79ac60db94e703a820ce892924910160405180910390a150565b60006020828403121561018057600080fd5b813573ffffffffffffffffffffffffffffffffffffffff811681146101a457600080fd5b939250505056fea264697066735822122086bd1cc273c71592b3b9c18105e42373b83684c9dfc03356fd65157785158f3564736f6c63430008110033",
  "linkReferences": {},
  "deployedLinkReferences": {}
}